:100000000C9430030C9468030C9468030C946803FC
:100010000C9468030C9468030C9468030C946803B4
:100020000C9468030C9468030C942C2D0C94002EF3
:100030000C94B1270C9468030C9468030C94680327
:100040000C9468030C9468030C9468030C94680384
:100050000C9468030C9438280C9468030C9468037F
:100060000C9468030C9468030C9468030C94680364
:100070000C9468030C9468030C9468030C94680354
:100080000C9468030C9468030C9468030C94680344
:100090000C9468030C9468030C9468030C94680334
:1000A0000C9468030C9468030C946803167C1E007F
:1000B0001F0020002100220023002400250026002C
:1000C00027002D002E002A0001002B0014001A002A
:1000D0000800150017001C0018000C001200130087
:1000E0002F00300000000100292104001600070045
:1000F00009000A000B000D000E000F003300340051
:10010000280031000100E10000001D001B00060076
:100110001900050011001000360037003800E50016
:1001200052002152E000E200E30000000000000065
:100130002C4100000000E700E600500051004F0095
:10014000000035003A003B003C003D003E003F000F
:100150004000410042004300440045004C000100C3
:1001600001003500D100CD00D200D9002D002E00B5
:100170002F003000310001000100000001000100EB
:100180000100CF00CE00D000DA0050005100520034
:100190004F002A00010001000100010001000000E1
:1001A0000100010001000100010028000100010020
:1001B000010001000100A90001000100010001008F
:1001C000000000000000010000000000010001002C
:1001D0000100AA00010000001E0F0500047F3F1F60
:1001E000643214643214783C1E1E140A052223253E
:1001F0002628292A2C2D2F3032333536383A3B3DEC
:100200003E4042434547494A4C4E50515355575939
:100210005A5C5E6062646668696B6D6F7173757756
:10022000797B7D7F81838587898A8C8E9092949655
:10023000989A9C9E9FA1A3A5A7A8AAACAEAFB1B364
:10024000B4B6B8B9BBBCBEBFC1C2C3C5C6C7C9CAB4
:10025000CBCCCDCED0D1D2D2D3D4D5D6D7D7D8D976
:10026000D9DADADBDBDBDCDCDCDCDCDDDDDDDDDCD4
:10027000DCDCDCDCDBDBDBDADAD9D9D8D7D7D6D5E6
:10028000D4D3D2D2D1D0CECDCCCBCAC9C7C6C5C3A8
:10029000C2C1BFBEBCBBB9B8B6B4B3B1AFAEACAAF5
:1002A000A8A7A5A3A19F9E9C9A98969492908E8CA5
:1002B0008A89878583817F7D7B79777573716F6D7F
:1002C0006B6968666462605E5C5A59575553515059
:1002D0004E4C4A4947454342403E3D3B3A3836350D
:1002E0003332302F2D2C2A292826252322FFAA7FBE
:1002F0005540000101010101010101010202020258
:1003000002020202020303030303030303040404BF
:100310000404040405050505050606060606070788
:1003200007070708080808090909090A0A0A0B0B40
:100330000B0C0C0C0D0D0D0E0E0E0F0F0F101011DF
:100340001111121213131414151516161717181865
:1003500019191A1A1B1B1C1D1D1E1E1F20202122CD
:1003600022232424252626272829292A2B2C2D2D13
:100370002E2F30313232333435363738393A3B3C30
:100380003D3E3F404142434445464748494A4C4D23
:100390004E4F50515354555658595A5B5D5E5F61EC
:1003A0006264656668696B6C6D6F7072737577787F
:1003B0007A7B7D7E8082838587888A8C8E8F9193DD
:1003C0009596989A9C9EA0A2A3A5A7A9ABADAFB104
:1003D000B3B5B7BABCBEC0C2C4C6C9CBCDCFD1D4E9
:1003E000D6D8DBDDDFE2E4E7E9EBEEF0F3F5F8FA8F
:1003F000FDFF00000000000000002A2B2800000084
:1004000000000000000000000000000000290000C3
:1004100000002C1E3420212224342627252E362DA0
:100420003738271E1F202122232425263333362E3A
:1004300037381F0405060708090A0B0C0D0E0F10AC
:100440001112131415161718191A1B1C1D2F3130F1
:10045000232D350405060708090A0B0C0D0E0F1095
:100460001112131415161718191A1B1C1D2F3130D1
:10047000354C0000000000000000000000000000FB
:10048000000000000000000000000000000000006C
:100490000000000000007E0F00D4FFFFFFC7000037
:1004A0000078100348004100560045004E00360019
:1004B000350000001C034100740065006C006900F9
:1004C000650072005F0048006100760065006E0004
:1004D00000000403090409025B00030100A0FA09FB
:1004E000040000010301010009211101000122445F
:1004F0000007058103080001090401000203000050
:1005000000092111010001222200070582032000B9
:100510000107050303200001090402000103000094
:100520000009211101000122B60007058403200003
:100530000112010002000000084644654600010166
:100540000200010660FF0961A1010962150026FF92
:10055000009520750881020963150026FF0095208B
:1005600075089102C005010902A10185020901A1D6
:100570000005091901290815002501950875018153
:10058000020501093009311581257F950275088121
:100590000609381581257F950175088106050C0A25
:1005A00038021581257F950175088106C0C00501B7
:1005B0000980A101850319012AB700150126B7009A
:1005C000950175108100C0050C0901A10185041970
:1005D000012AA002150126A002950175108100C014
:1005E00005010906A1018506050719E029E715009F
:1005F00025019508750181020507190029EF1500ED
:10060000250195F075018102050819012905950557
:1006100075019102950175039101C005010906A1BB
:1006200001050719E029E7150025019508750181E5
:10063000029501750881010507190029FF1500269B
:10064000FF009506750881000508190129051500A8
:100650002501950575019102950175039101C00071
:1006600011241FBECFEFDAE0DEBFCDBF04B603FE1C
:1006700018C08091340390913503A0913603B09156
:1006800037038730904BA740B04B59F41092340396
:10069000109235031092360310923703E0E0F8E32E
:1006A000099511E0A0E0B1E0ECE8F4E602C00590A5
:1006B0000D92A23FB107D9F723E0A2EFB1E001C04C
:1006C0001D92A433B207E1F70E9429130C949E31C6
:1006D0000C940000CF93DF93D82F0E94A504C82F5D
:1006E000882341F020E04FEFD1FF40E060E080E060
:1006F0000E9489168C2FDF91CF9108958932914203
:1007000019F084EB90E0089583E790E0089582303B
:10071000B8F46530A8F44F3098F450E09FE0699F3A
:10072000400D511D1124FA019BE4899FE00DF11D3C
:100730001124EE0FFF1FE455FF4F8591949108950A
:1007400081E090E0089581E008950E94A303089558
:1007500081E008950E94A30308950E94AA030895CA
:1007600008950E94B0030895A6E0B0E0EAEBF3E03C
:100770000C944A3049835A839E833091F9018981D0
:100780009A8131111AC03E81332399F0222389F0D6
:100790000E942C09182F682F89819A810E940809CC
:1007A00069817A81812F0E9495102696E3E00C944E
:1007B00066300E941A09182FF3CF0E942C09698114
:1007C0007A81F1CFFC01262F4081518162817381B2
:1007D000848195810E94B4030895CF93DF93EC0147
:1007E00061E00E94E203BE010E94A503DF91CF9168
:1007F0000895CF93DF93EC0160E00E94E203BE0115
:100800000E94B103DF91CF91089581E008950E9485
:1008100005040895CF93C82F0E9404088C2F0E94CE
:1008200007042FEF84E39CE0215080409040E1F7E3
:1008300000C00000CF91089581E00E940A040E9448
:100840005C28089580E00E940A040E948028089590
:100850000F931F93CF93DF938C0161E00E94E2031B
:10086000EC01F801858181110E940E1BB801CE01B7
:100870000E945724811106C080E0DF91CF911F9123
:100880000F910895B801CE010E94AD038823A1F312
:10089000B801CE010E946223882371F3B801CE0112
:1008A0000E94BE1E882341F3B801CE010E94941E0F
:1008B000882311F3B801CE010E942D1B8823E1F299
:1008C000B801CE010E94A6238823B1F2F8018581E8
:1008D000882361F0C330FCE7DF07E9F058F4C11565
:1008E000ECE7DE07A9F0C130DC47B9F0C8010E948F
:1008F000A803C3CFCB358CE7D807A9F0CC35ECE7FC
:10090000DE0771F0CA35DC4789F70E94D90DEECFBA
:100910000E941C04B1CF0E94E10D0E942204ACCFC2
:100920000E94CF0DE3CF0E94DD0DE0CF0E948D2706
:100930000E94B1040E94641908950E94B5040E94A7
:10094000651A0E9492270895089581E008950895F8
:10095000CF93C82F0E94A4048C2F0E946A03CF91CA
:10096000089580E00E94A80408950E94CD250E9469
:10097000A8040895CF930E94CD25C82F8091F4013B
:100980008C1779F0C093F4010E941D286093F50143
:100990007093F6018093F7019093F8018C2F0E94D9
:1009A000A804CF910895ADE0B0E0E9EDF4E00C9437
:1009B0004B30488759876A877B878C879D87911141
:1009C0000E94DF0C1F8286E0FE013896DE01119640
:1009D00001900D928A95E1F78D8181110DC02981D9
:1009E0003A814B815C816D817E818F810E94290CCF
:1009F0002D96E2E00C946730CE0101960E94ED0343
:100A00008111EDCFF5CFFC012481213021F48081CB
:100A100091810E9459090895662329F00E941F20A0
:100A20000E94042108950E948B20FACFCF93C82FF3
:100A30008823C1F08CEF8C0F813AB0F48C2F0E9488
:100A4000391C81110FC08C2F0E946D26882329F03C
:100A50008C2F0E940D270E94730D8C2F0E94F6266A
:100A60000E94730DCF91089580E28C0F883048F476
:100A7000C77081E001C0880FCA95EAF70E94C20CD6
:100A8000EFCFEBE5EC0FE33040F4F0E0E959FE4F37
:100A9000808190E00E940126E5CFE8E5EC0FEB3184
:100AA00050F4F0E0EE0FFF1FEF5CFE4F808191816C
:100AB0000E942626D7CF83E38C0F833198F661E01E
:100AC0008C2F0E940C05CECF882381F19CEF980FCC
:100AD000913A28F40E940D270E94730D089590E228
:100AE000980F983050F4877091E001C0990F8A9563
:100AF000EAF7892F0E94C80CEFCF9BE5980F93303F
:100B000028F490E080E00E940126089598E5980F6F
:100B10009B3128F490E080E00E942626089593E31C
:100B2000980F933118F460E00E940C0508951F930C
:100B3000CF93DF93182FEB010E941605209739F40D
:100B4000812F0E946405DF91CF911F9108958FE955
:100B50009FE00197F1F700C000002197EFCF70E010
:100B600060E0893311F460E570E00E949705089514
:100B7000882321F00E94C20C0E94730D08958823DF
:100B800021F00E94C80C0E94730D0895B0E0A0E00F
:100B9000ECECF5E00C9444306C01D62FC72FFC012F
:100BA0001581068102950F700E94B80CE82E8823EB
:100BB000F9F0E12E1123E1F08C2F807F803461F079
:100BC00080E28D0F883008F18C2F807E803221F4F6
:100BD000D230D8F00023C9F08091030382FF15C002
:100BE00082E00E94A30D0E94B80C91E0E82EE92655
:100BF000BC2EB2949FE0B922FBE0FB15B8F1EB2DBF
:100C0000F0E0E056FE4C0C94FD2FE12CF1CF0C2FC0
:100C10000F70C07F11F00295007F112399F000231F
:100C200059F080E28D0F883010F0D11107C0802F6D
:100C30000E94C20C0E94730D8D2F5AC0802F0E94FB
:100C4000D20CF8CF8D2F0E946405002379F080E24A
:100C50008D0F883010F0D11104C0802F0E94C80C75
:100C600003C0802F0E94D80C0E94730DEB2DE8501A
:100C7000FF0B349720F40E94CD250E94A804EE209B
:100C800089F00E94B40C80FD0DC0F60115820E940F
:100C9000AE0C0E947C08C6010E94CB070E94AE0CDD
:100CA0000E948808CDB7DEB7E9E00C9460302C2FA5
:100CB0002F70F22EC07FC03219F0F29480EFF8222C
:100CC000DD2341F0D130D1F1112309F444C00023D8
:100CD000F1F0B2CF8091030382FD15C0112359F0CA
:100CE000FF2029F08F2D0E94C20C0E94730D80E01E
:100CF0000E941605BBCF80E00E946405FF2009F426
:100D0000B5CF8F2DABCF112369F0011104C08F2D0A
:100D10000E94B805ABCF013009F0A8CF8F2D0E94FB
:100D2000F60CA4CF0111A2CF8F2D0E94BF058F2DED
:100D30000E94020D8F2D0E94E60C98CF112321F006
:100D4000063008F093CFE3CF053008F08FCF8F2D1A
:100D50000E94BF058BCF0023D1F3D93349F43FEF75
:100D600087EE93E0315080409040E1F700C00000F2
:100D70008D2F0E9464057ACF8C2F8695869583707F
:100D800069F0813009F072CF8D2F9C2F9370111173
:100D900002C080E090E00E94262668CF8D2F9C2F15
:100DA0009370111102C080E090E00E9401265ECF96
:100DB000612F8D2F0E940C0559CF8C2F837079F5F0
:100DC000111154CF4D2F429546954770440F440F53
:100DD0008D2F8F70042E01C0880F0A94EAF72D2FF3
:100DE0002071D4FF07C02FE030E001C0220F4A95E8
:100DF000EAF72095C695C695C370822BC23049F09C
:100E000058F4C13019F00E94580830CF0E9452089F
:100E10002DCF0E945E082ACF0E944F0827CF8695CB
:100E2000112311F08C2F8170882309F41FCF4D2FCF
:100E3000429546954770440F440F8D2F8F70042EB6
:100E400001C0880F0A94EAF72D2F2071D4FF07C044
:100E50002FE030E001C0220F4A95EAF72095C695B1
:100E6000C695C370822BC23049F058F4C13019F0D6
:100E70000E94A708FBCE0E94A108F8CE0E94AD08F0
:100E8000F5CE0E946A08F2CECF70112329F08C2F84
:100E90000E947C088D2F3CCF8D2F0E94BF058C2F88
:100EA0000E948808E3CED23F41F160F4D03FB9F010
:100EB000D13F81F0112309F446C00111BDCE8C2F22
:100EC0008F711FC0D33F01F1D43FA1F7809103037D
:100ED00082FD24C08C2F8F71112311F312C01123B6
:100EE00041F0053008F0C2CE8C2F8F710E9495081A
:100EF000BDCE063008F0BACEF7CF8C2F8F7111110E
:100F0000CFCF0E947C08B2CE112329F08C2F8F7195
:100F10000E947308ABCE0E946F08A8CE112349F03F
:100F2000CF718C2F0E947C0863E08C2F0E94850D6E
:100F30009DCE81E00E94A30D023008F497CE82E09E
:100F40000E94A30D93CE002359F0D93309F010CF9E
:100F5000EFEFF7EE23E0E150F0402040E1F706CF5D
:100F60008C2F8F719DCF0F931F93CF93DF93EC0145
:100F7000688179818D810E9464098C010E94B30887
:100F80000E944E08B801CE010E94C605DF91CF91A4
:100F90001F910F910895CF93DF93EC018C818823EB
:100FA00099F0CE010E942804811111C00E94B80C52
:100FB000882351F08D81882339F08091030382FFCB
:100FC00003C082E00E94A30DDF91CF910895CE016E
:100FD0000E94B307CE010E94F903F6CF90E080E0B3
:100FE0000E94012690E080E00E9426260E94DF0CED
:100FF0000E94730D0E9420210E94042108950E94E6
:1010000024270E94EE0708950E94CF0C0E94FF073C
:10101000089592959F70963091F058F4925F9F706A
:10102000923058F4803F19F030F4883E30F481E07B
:1010300008959A5FF4CF843FD1F380E00895883E0D
:10104000B0F3813FD1F7F3CFFC012481222339F0A3
:10105000808191810E9459090E940908089580E0C9
:101060000895A6E0B0E0E7E3F8E00C944B30269654
:10107000E2E00C946730A7E0B0E0E1E4F8E00C9423
:101080004B302796E2E00C94673008950E944508A3
:1010900008950E94460880931902089508950E94B9
:1010A0004908089590911902892B0E9449080895D2
:1010B0009091190289230E9449080895909119027C
:1010C00089270E94490808950E94450808950E94B2
:1010D000640808950E94670880931802089580E0CC
:1010E0000E946A08089591E001C0990F8A95EAF775
:1010F000892F0E946A08089521E030E001C0220F84
:101100008A95EAF780911802822B0E946A08089556
:1011100021E030E001C0220F8A95EAF72095809106
:10112000180282230E946A08089521E030E001C07D
:10113000220F8A95EAF78091180282270E946A0896
:10114000089590911802892B0E946A080895909141
:10115000180289230E946A0808959091180289272D
:101160000E946A0808950895262F277091E001C013
:10117000990F2A95EAF723E0769567952A95E1F786
:10118000FB01EE0FFF1FE60FF71FE40FF51F50E006
:1011900040E0682F70E08191DF0111979B01042EE0
:1011A00002C0369527950A94E2F7217021952827E9
:1011B000292328272C934F5F5F4F4330510559F760
:1011C0000895A82FA77023E0969587952A95E1F7B3
:1011D000FC01EE0FFF1FE80FF91FE60FF71F50E0AD
:1011E00040E080E0219130E00A2E02C0369527953C
:1011F0000A94E2F721703327042E01C0220F0A94CB
:10120000EAF7822B4F5F5F4F4330510559F708953E
:10121000262F953070F48F3060F4682F70E08FE0E7
:10122000989F600D711D11244AEF51E0822F0E949A
:10123000B4080895292F953068F48F3058F490E061
:101240006AEF71E03FE0239F800D911D11240E9401
:10125000E108089580E00895CF92DF92FF920F9306
:101260001F93CF93DF936C010091180280911902B4
:10127000082BC3E0D0E010E0FC2EC8010C2E02C009
:10128000959587950A94E2F780FD0CC02197A0F709
:10129000F12C8F2DDF91CF911F910F91FF90DF9057
:1012A000CF900895B6018C2F0E94A110019771F381
:1012B000F0CFCF93DF93EC010E942C09BE010E9476
:1012C000A110DF91CF9108951F93CF93DF93EB018E
:1012D0009091F901992339F0CB010E945909DF91CE
:1012E000CF911F910895882369F0CB010E942C09AA
:1012F000182F682FCE010E940809BE01812F0E947D
:10130000A110EDCFCB010E941A09182FF6CFE1E012
:10131000F0E0DF0102C0AA0FBB1F6A95E2F7BD0132
:10132000DF0102C0AA0FBB1F4A95E2F76A2B01C07A
:10133000EE0F2A95EAF7962F9823961302C08E2B6C
:101340000895E0958E230895242F462F682F8091CD
:1013500018020E9487090E946A0808951F93CF937C
:10136000DF93C0911A0217E080911B028C1304C016
:10137000DF91CF911F910895D0E01C9FF0011D9F38
:10138000F00D1124E45EFD4F2081318142815381B3
:101390006481758186810E943B082196C770E4CFE5
:1013A00020915402309155024091560250915702BB
:1013B000609158027091590280915A020E943B0834
:1013C0000895482F20911A0290911B0257E029138B
:1013D00002C080E0089530E0529FF001539FF00D6D
:1013E0001124E45EFD4F8181681306C0808148139B
:1013F00003C085818111EECF2F5F3F4F2770E7CF6C
:10140000B0E0A0E0E6E0FAE00C94463080915A02A9
:10141000807F09F054C080915902882309F44FC09D
:10142000E0911A0287E0D82E80911B028E1709F4F2
:1014300046C00E2F10E0ED9DF0011124E45EFD4F3B
:101440008481882309F440C0D09EE001D19ED00D54
:101450001124FE01E45EFD4F9181809155029813A5
:1014600033C090818091540298132EC085818111E0
:101470002BC0E280F3808091560290915702E81AC7
:10148000F90A60E084E592E00E94E20364E572E01C
:101490000E947E03E816F906B8F480915A028F7014
:1014A000806180935A02CE5DDD4F88818F708061AC
:1014B000888384E592E00E94CB070E94AE09CDB7F5
:1014C000DEB7E7E00C946230F8013196E770ACCFFC
:1014D000A4E1B0E0EEE6FAE00C943E308C0186E048
:1014E000F801DE011F9601900D928A95E1F7F8014F
:1014F000F480E58084E5882E82E0982E8091580261
:10150000811126C0F11007C0FF24F3948F2D64963B
:10151000EFE00C945A30EE20B9F0C8010E94240884
:10152000F82E882389F087E0F801A4E5B2E0019065
:101530000D928A95E1F784E592E00E9403050E94EE
:10154000000A0E94D009E2CFC8010E94CB07DCCF7D
:101550005080A180C280D380B09059028091560201
:10156000909157023601681A790A60E084E592E0AA
:10157000BB2009F408C10E94E20364E572E00E9406
:101580007E036816790608F0ABC0FF2009F4BCCFD3
:1015900080915A02382F307F20915502F8019181B5
:1015A00031115AC0FE2C291316C02091540290818B
:1015B000291311C0E11049C08F70806180935A02D5
:1015C0000E94D00984E592E00E94CB0780915A02E4
:1015D000F80186839BCFE11038C06A2D852D0E94CB
:1015E000E1096A2D852D0E94E109E82E81118ECF37
:1015F0005F86A88A8F8598890E945909292F22958C
:101600002F70243058F49F70223088F0992399F07D
:10161000F8019681907F79F4FE2C78CF2A5F2F70A5
:10162000223068F0C8010E94CB07EB2CF5CF99233C
:1016300011F0882389F3805E883070F3F3CF803F08
:1016400058F3815F833070F7E7CF80915A02816051
:1016500080935A02F12C5ACF291317C020915402BB
:101660009081291312C0E11010C08683C8010E9426
:10167000CB0787E0F801A4E5B2E001900D928A95CE
:10168000E1F70E94D009FB2C41CFC8010E94240839
:10169000882309F459CFEE2009F456CF80915A02DD
:1016A000803288F020915402309155023987288782
:1016B000DB86CA86909158029C871D868E87CE0154
:1016C00008960E94CB0787E0F801A4E5B2E00190FC
:1016D0000D928A95E1F70E94000A0E94D00914CF6A
:1016E00080915A02982F907FB1F46C2DDA8AC98AC2
:1016F000452D5A2D7A898F2D9E2D0E94310884E523
:1017000092E00E94CB0787E0F40111928A95E9F7F5
:101710000E94D0099FCFFF2009F4F6CE20915502F8
:10172000F8019181291311C020915402908129134D
:101730000CC0E1100AC08683C8010E94CB0787E075
:10174000F40111928A95E9F79ECFC8010E942408FE
:10175000882309F4F9CEEE2009F4F6CE80915A02DE
:10176000803208F4B0CF20915402309155023A8370
:101770002983DC82CB82909158029D831E828F83C5
:10178000CE0101969ECF0E94E20364E572E00E94C2
:101790007E036816790608F051C0FF2009F4B4CE24
:1017A000FE2CEE2009F4D0CE90915502F8018181F3
:1017B000981336C0909154028081981331C0809163
:1017C000560290915702C81AD90AF4EBCF16D104E9
:1017D000F0F490915A0290FD1AC0907FC1F0809170
:1017E0005A02F8018683903F31F0982F907F905FE6
:1017F0008F70892B8683C8010E94CB0787E0F80190
:10180000A4E5B2E001900D928A95E1F79ACE87E0C7
:10181000F801A4E5B2E001900D928A95E1F776CE49
:10182000C8010E94240881114ECF80915A02816024
:1018300080935A02C8010E94CB0768CE6C2DDA8AC9
:10184000C98A452D5A2D7A898F2D9E2D0E943108E7
:101850005ACFAEE0B0E0EFE2FCE00C944A302887CB
:1018600039874A875B876C877D878E87CE0108968C
:101870000E94680A8823B1F06C85662341F02885B0
:1018800039854A855B857D858E850E943B0817E0FA
:1018900080911A0290911B0289133DC02E96E3E0BD
:1018A0000C94663087E0FE013896DE0111960190B7
:1018B0000D928A95E1F78C85882349F320911B02CC
:1018C00030E0C90101968770992740911A024817A4
:1018D000190699F097E0929FD001939FB00D1124C3
:1018E000A45EBD4FFE01319601900D929A95E1F7ED
:1018F00080931B020E94AE09CACF0E940408109276
:101900001B0210921A0287E0E4E5F2E0DF011D926B
:101910008A95E9F7BCCF819FC0011124845E9D4F59
:101920000E94680A882309F4B9CFE0911A021E9F29
:10193000F0011124E45EFD4F208131814281538109
:101940006481758186810E943B0880911A0290E033
:1019500001968770992780931A029ACF809183020B
:10196000869586958695089580918302877008955F
:1019700090918302977081E009F480E0089580914E
:10198000AF0208959091AF02892B8093AF02089522
:1019900080959091AF0298239093AF020895109292
:1019A000AF0208959091AE02892B8093AE02089504
:1019B00080959091AE0298239093AE020895109274
:1019C000AE02089508950E94E20C08959091840259
:1019D000292F282331F080958923809384020E9447
:1019E000E30C089508950E94F20C089590918502E9
:1019F000292F2823281729F0982B909385020E94DD
:101A0000F30C089590918502292F282331F08095B9
:101A10008923809385020E94F30C089580918502AA
:101A2000882329F01092850280E00E94F30C08952B
:101A3000CF93C091AF028091AE02C82B80918502F6
:101A4000882331F0C82B0E944B2681110E940E0D75
:101A50008C2FCF910895CF93DF93C0910601D09141
:101A600007010E94180D8883C0910601D0910701DB
:101A700048E050E06BE772E0CE010E941131892B03
:101A800059F088E0FE01ABE7B2E001900D928A9533
:101A9000E1F7CE010E94DA25DF91CF910895CF932F
:101AA000DF93C0910401D09105010E94180D898334
:101AB000C0910401D091050140E250E06BE572E075
:101AC000CE010E941131892B59F080E2FE01ABE575
:101AD000B2E001900D928A95E1F7CE010E94E525D2
:101AE000DF91CF91089580913001882339F0809162
:101AF000020387FF03C00E944F0D08950E942B0D23
:101B0000089508950E94810D08959091030392FF16
:101B100011C098E0899F90011124622B6093830289
:101B20000E947C08809183028695869586950E9406
:101B3000820D08950E947C0808951092830280E02F
:101B40000E94820D0895909183028095892380934D
:101B50008302282F277069F4891759F090910303A5
:101B600092FF07C08695869586950E9488080E94F8
:101B70009D0D08959091030392FB222720F92817C9
:101B800069F080FB92F99093030380910203909196
:101B900003030E94030E82E00E94A30D089580912A
:101BA000030382FB882780F991E089270E94BA0D00
:101BB000089581E00E94BA0D089580E00E94BA0D58
:101BC00008956FEF7FEF90E080E00E946931089503
:101BD00090E080E00E943531863E9E4F19F40E94CD
:101BE000EF23089580E0089582E090E00E9427317D
:101BF000089583E090E00E942731089584E090E00A
:101C00000E9435310895BC0184E090E00E94693162
:101C10000895AB01BC018FE090E00E945D31089512
:101C2000AB01BC0183E190E00E945D31089560E06A
:101C300070E0CB010E94100E089560E070E0CB01CF
:101C40000E94090E0E94170E0895A8E0B0E0EBE292
:101C5000FEE00C944B3066EE7EEF90E080E00E9458
:101C6000693160E082E090E00E944B3181E0809336
:101C7000190261E083E090E00E944B3160E074E182
:101C800084E090E00E94693160E086E090E00E948C
:101C90004B316FEF87E090E00E944B3140E050E025
:101CA000BA0188E090E00E945D3160E084E290E05B
:101CB0000E944B3160E087E190E00E944B3160E090
:101CC0008CE090E00E944B3160E08DE090E00E945B
:101CD0004B3119821A821B821C821D821E821F8236
:101CE000188648E050E068E170E0CE0101960E945D
:101CF0003B3140E050E0BA0180E290E00E945D316B
:101D000080E00E9408240E9437240E941D0E28961D
:101D1000E2E00C9467300E94250E0895682F8EE053
:101D200090E00E944B310895A6E0B0E0EAE9FEE0C1
:101D30000C9449300E9411288C018091B00290913E
:101D4000B1028017910781F019821A820E9411282E
:101D5000682F49815A81792F80E090E00E94D30456
:101D60001093B1020093B0022696E4E00C94653023
:101D70000E941D286093C0027093C1028093C2022A
:101D80009093C3026093BC027093BD028093BE0225
:101D90009093BF020895089508950E94CB0E089570
:101DA00008950E94D00E089587E991E10E943613AC
:101DB0000E94CC0E0E94CD0E089581E008950E94ED
:101DC000DD0E08950E94DD0E0895089508950E9485
:101DD000E50E0E94E60E08950E94B6110E94A70427
:101DE00008950E9408280E9447240E948E120E9493
:101DF000EC0E0E940D1A0E94D10E0895A6E0B0E0EC
:101E0000E4E0FFE00C943F300E94DF0E81110CC033
:101E10000E94940E0E940F1B0E9442210E94BA044D
:101E20002696EEE00C945B300E94A41222EB822EE8
:101E300022E0922E640110E0F601E190F1906F0132
:101E4000812F0E94D9111F5F153009F44BC0E8168D
:101E5000F90691F38091C40281FD0E94E2110E9473
:101E6000E20E782E10E066246394812F0E94D9112F
:101E70007C01F401A190B1904F018A159B0561F19D
:101E8000A826BF2400E0CC24C394D12CC5018C210A
:101E90009D21892BC1F07720B1F009831A830E941C
:101EA00011289C838B836D8221E0C7018C219D21A9
:101EB000892B09F420E049815A816B817C818D81D5
:101EC000922F0E94D3040F5FCC0CDD1C0F30F1F673
:101ED000F4013297F182E0821F5F153031F60E94E3
:101EE000B80E98CFE816F90609F0B4CF91CF1F933A
:101EF000CF93DF930E94A610EC01C11580E5D807AF
:101F0000F0F5C11580E4D80708F09CC0C03ED105AB
:101F100020F5CD3CD10508F082C0C83AD10578F44F
:101F2000C53AD10508F073C0C130D10519F1209729
:101F300009F1C430D105F0F4D0E0C0E01BC0C33CCF
:101F4000D105D0F7C85AD0E0CC0FDD1FC659DE4FFF
:101F50000990D881C02DD4640DC0C11580E2D80786
:101F600008F0D1C0C11581E0D80708F05AC0C83EBA
:101F7000D10510F7CE01DF91CF911F910895C036A2
:101F800082E5D80718F5C03482E5D80708F06BC0A1
:101F9000C03282E5D80708F05FC0C11582E5D807D6
:101FA00008F497C02C2F2695269580E2289F900153
:101FB00011248C2F8370C1E0D0E002C0CC0FDD1F54
:101FC0008A95E2F7C22BD32BDD68D4CFC03A82E5E5
:101FD000D80760F4C03882E5D80708F459C0CF713B
:101FE000D0E0DC2FCC27C46FD06AC4CFC03C82E5E0
:101FF000D80708F462C0C03E82E5D80708F09CCF3D
:10200000DC2FCC27CC27DF71C06FD06AB3CFC55A85
:10201000D0E0C056DE4FC881D0E0D064ABCFD065F1
:10202000A9CF8D2F0E944811182FCE0199270E9409
:10203000A610C12FD0E0DC2FCC27CC27DF71C82B16
:10204000D92B98CFCE0199270E94A610CC27DF70FC
:10205000C82BD92BD06A8ECFCF71D0E0DC2FCC2704
:10206000C16FD06A87CF2C2F26952695277080E2E6
:10207000289F900111248C2F8370C1E0D0E002C012
:10208000CC0FDD1F8A95E2F7C22BD32BDC6872CF11
:102090002C2F26952695277080E2289F90011124E9
:1020A0008C2F8370C1E0D0E002C0CC0FDD1F8A9579
:1020B000E2F7C22BD32BDA685DCF8C2F8F710E9491
:1020C0004811C82FD0E0DC2FCC27CC27DF71D0629D
:1020D00051CF8C2F8F710E94481155E0D695C7952E
:1020E0005A95E1F7CF70D0E0DC2FCC27282F30E0D5
:1020F00084FF05C044E0220F331F4A95E1F7C22B4D
:10210000D32BD06937CF8D2F8F710E944811182F94
:10211000CE0199270E94A610C12FD0E0DC2FCC273A
:10212000CC27DF71C82BD92BD2CF462F753030F496
:102130006F3020F4672F0E94AC1D089590E080E07E
:1021400008950E9495100E94770F08958238910596
:10215000B9F1B0F48133910509F47DC048F48932B6
:10216000910509F46DC08A32910509F47BC0089588
:102170008533910509F45FC08933910509F108950C
:10218000833E9105D9F138F4803E910529F1823ED4
:10219000910579F10895863E9105D9F1873E910523
:1021A00009F43EC0843E910541F52091030321FFCF
:1021B00024C08091020384FD19C087EE90E0089549
:1021C00020910203237009F05AC02091030323FFDA
:1021D00014C089E290E008952091020320FD38C0E8
:1021E0003091030330FF09C024FF43C090E080E03A
:1021F00008952091020322FDF7CF08952091020354
:1022000022FD3AC03091030330FD39C024FFF5CFE1
:10221000EDCF2091020323FFF0CF24FDE7CFCDCFF8
:102220002091020323FD2EC03091030331FFEECF36
:1022300084EE90E008952091020325FFDECFC9CF00
:102240002091020325FD21C02091030323FFD5CF58
:1022500089E390E0D2CF2091020326FFCECF8AE21D
:1022600090E008952091020326FFC7CF81E390E01C
:10227000089583EE90E0089582EE90E0089580EE58
:1022800090E0089586EE90E0089585E390E008954B
:102290009091020392FF10C041E0282F2471243056
:1022A00009F040E031E0282F2871283009F030E0B3
:1022B000431711F02CE0822793FF10C041E0282F34
:1022C0002471243109F040E031E0282F28712831B1
:1022D00009F030E0431711F02CE08227309103031E
:1022E00030FF10C051E0282F2171213009F050E05B
:1022F00041E0282F2871283009F040E0541711F0F0
:1023000029E0822731FF10C041E0282F21712131BF
:1023100009F040E031E0282F2871283109F030E041
:10232000431711F029E0822794FD877E089580E00D
:1023300008950E94E10D08950E94A4122FEF86E7F0
:1023400091E0215080409040E1F700C000000E94E1
:10235000A41280E00E94D91180FF04C00E9499114C
:102360000E945C2808950E949C1108950E94E80D27
:10237000811102C00E948B0E0E94F40D8093C40252
:102380000E94FE0D90930303809302030E94B311F9
:102390000E94F90D0E944F08809118020E94670860
:1023A000089508950E94D111089508950E94D511AD
:1023B0000895E82FF0E0EE0FFF1FE25FFC4F8081F1
:1023C00091810895089580EA8A95F1F7089500C0F3
:1023D00008950E94E3110895F894E82FE295EF70B4
:1023E000F0E031A1282F2F7081E090E001C0880F2C
:1023F0002A95EAF7982F9095932391A392A1892B80
:1024000082A378940895CF93DF93C2EBD1E08991B2
:102410008F3F11F00E94EC1181E0C73BD807B9F75C
:10242000C3EAD1E089918F3F11F00E94EC1181E065
:10243000C23BD807B9F7DF91CF910895AF92BF9211
:10244000DF92EF92FF920F931F93CF93DF938C0154
:10245000D62EC62FD0E0CE018E549E4F7C01FC01BB
:1024600020812F3F09F44DC0F894E22FE295EF70E0
:10247000F0E031A12F7081E090E001C0880F2A9533
:10248000EAF7932F982B91A392A18095892382A399
:1024900078940E94E711E3EAF1E042EB51E021E099
:1024A00030E0B12CA12C61916F3FA9F1A62FA2952C
:1024B000AF70B0E090968C9190E06F7002C09595EF
:1024C00087956A95E2F780FD26C0C901A82AB92A36
:1024D000220F331F4E175F0731F7F70180818F3FBF
:1024E00011F00E94EC1161E0A114B10409F460E064
:1024F0008D2D0E94E911CC0FDD1FC00FD11FB982B5
:10250000A882DF91CF911F910F91FF90EF90DF9004
:10251000BF90AF90089590E080E0D8CF0E94031262
:102520008AE0EEE0F3E0DF01982F1D929A95E9F73B
:10253000E4E0F3E0DF011D928A95E9F785E00E946F
:10254000DF120E94D2110895AAE0B0E0EAEAF2E1B7
:102550000C9448308E010F5F1F4F8AE0F8011192F2
:102560008A95E9F7F12C6F2DC8010E941E12F39491
:10257000F5E0FF12F8CF4AE050E0B80184E093E0C4
:102580000E94113121E0009709F420E0892B41F0ED
:102590008AE0F801A4E0B3E001900D928A95E1F79A
:1025A00045E06EE073E084E093E00E94E012182FB3
:1025B0000E94D611812F2A96E5E00C94643008958C
:1025C000B0E0A0E0E6EEF2E10C9445306C017B0156
:1025D000042FC22F222379F081E08093C7020E944A
:1025E00011289093C6028093C50280E0CDB7DEB774
:1025F000E8E00C946130D091C702DD23B1F3809103
:10260000C5029091C6020E942928059770F310E038
:10261000000F111FA801B601C7010E941131892BBB
:1026200031F0A801B601C7010E941E31CD2F1092D2
:10263000C7028C2FDBCF0E94012A0E94F10E0E945C
:102640000E2A08950E94132A0E94FE0E0E942D2A2F
:1026500008950E94AA270E94E7290E94D40E0E9492
:102660001B130E9422130E94E70EFBCF9093F301ED
:102670008093F2010895EF92FF920F931F93CF93EF
:10268000DF93EB01E82FD1110EC0442321F0F0E0DD
:10269000EE50FD4FE4916E2F7E2F8E2FCDB7DEB71B
:1026A000E6E00C9463300D2F10E0282F30E0442337
:1026B00029F02E503D4FF901249130E0F6E0CF9FF4
:1026C000C0011124EFEFF0E0BF010E94B32FAB0176
:1026D0008C2F90E0880F991FA5E5A49FB001A59FBE
:1026E000700D1124861B970B982F990F980FBF011F
:1026F000601B710B629FD001639FB00D729FB00D84
:1027000011248B2F9D9FB0011124672F7727EF0194
:10271000C61BD70BBE01629FE001639FD00D729F65
:10272000D00D11247F01E91AF108E09EB001E19E6D
:10273000700DF09E700D1124672F7727E61BF70BA5
:10274000E29F8001E39F100DF29F100D1124E12FF5
:10275000722F4230510599F048F44115510569F046
:102760004130510581F0EB2F8D2F07C044305105CA
:1027700069F080F046305105B1F76E2F8FCFE22F10
:102780007B2F812FFACFE22F7D2FF7CFEB2F822FD8
:10279000712FF3CF7B2F822FED2FEFCF41E00E94DF
:1027A0003B13089508950E94CE130895CF93DF93AD
:1027B000762FE901682F842F0E94D31379836883D1
:1027C0008A83DF91CF91089580911803982F9C7F81
:1027D00029F4837084608093180308958C3AE8F399
:1027E0008370886AF8CFB0E0A0E0E9EFF3E10C94E1
:1027F000453088E090E00E942F316B017C0184E23B
:1028000090E00E942731282F30E040E050E060E067
:1028100070E080E090E000E20E947230B22FA32FBF
:10282000F42FE52FD62FC72F97018601BC29A12BA6
:10283000FE295E2F532B2B2F3A2F4F2F6D2F7C2FDE
:10284000CDB7DEB7E8E00C946130B0E0A0E0EBE299
:10285000F4E10C94413049015A016B017C010E9462
:10286000E4138401A4016A2D7B2D88E090E00E948E
:102870005D3194014A2D5B2DB601C70100E20E9433
:102880008D30622F84E290E00E944B31CDB7DEB7ED
:10289000ECE00C945D30E8E1F3E02081318142818D
:1028A000538164817581868197810E9425140895E2
:1028B000E8E1F3E085E0808311828FEF82838383F8
:1028C0001482758125E030E04FEF5FEF60E0868194
:1028D00097810E94251408958091180380FF03C0FA
:1028E00086958695089580E00895809118038170FB
:1028F000089590911C03933018F49F5F90931C03EC
:10290000882391F0209118033091190340911A0304
:1029100050911B0360911C0370911D0380911E0355
:1029200090911F030E942514089581E00E9479145C
:10293000089590911C03992319F0915090931C03D2
:10294000882391F0209118033091190340911A03C4
:1029500050911B0360911C0370911D0380911E0315
:1029600090911F030E942514089581E00E949914FC
:10297000089580911C03089580931C03662389F0B9
:10298000209118033091190340911A0350911B03B1
:1029900070911D03682F80911E0390911F030E9468
:1029A0002514089560E00E94BC14089580911903D5
:1029B000089580911A03089580911B03089570E093
:1029C0000E949F1B089560910C018091180380FF65
:1029D0000BC080910B0123E0829FC0011124805E17
:1029E0009C4F0E94DF140895E0910D0180910E012B
:1029F000E81778F78E2F90E0FC01EE0FFF1FE80F2D
:102A0000F91FE05EFC4F118210821282E2CF90919A
:102A1000180390FF14C0E0910D0190910E01E91789
:102A200060F42E2F30E0F901EE0FFF1FE20FF31FCD
:102A3000E05EFC4F8183608342830E94E31408952B
:102A4000A3E0B0E0E6E2F5E10C944B30909118037E
:102A500090FF0AC09E012F5F3F4F0E94D6134B810B
:102A600069818A810E9407152396E2E00C94673001
:102A7000CF93DF93EC01EC81F0E0E351FE4F449102
:102A8000E8E1F3E0628181810E9420158C818F5FF3
:102A90008C83DF91CF910895CF93DF93EC01E8E130
:102AA000F3E0438162818C810E9420158C818F5FCD
:102AB0008C83DF91CF910895A3E0B0E0E2E6F5E1E9
:102AC0000C9449308C018091C80281110AC09E018A
:102AD0002F5F3F4F4FEF6FEF0E94D6138A81809395
:102AE000C802F8016481613069F08091C80240E059
:102AF000662361F040E0623011F44091C80280E04A
:102B000060E004C06091C80240E080E00E940715C8
:102B1000F801848190E0019663E070E00E94C72F85
:102B200084832396E4E00C946530A3E0B0E0EBE905
:102B3000F5E10C944430082FD62EF42EC22E90913D
:102B4000180390FF2FC0E92FE695E695AE2FB0E071
:102B5000A954BE4F8C918093D9029C7F943031F55B
:102B60009E012F5F3F4F802F0E94D6134B816981BA
:102B70008A810E94071500931903D0921A03F092DC
:102B80001B03CC2079F02091180360911C037091F5
:102B90001D03302F4D2D5F2D80911E0390911F033B
:102BA0000E9425142396E9E00C946030823019F4D9
:102BB000F0901B03E0CF863019F400911903DBCFAE
:102BC0008930D9F38931B9F6E9516E2F6170B62E8B
:102BD000E695F0E0E351FD4F1491E12C60910F0177
:102BE000E61618F00E94E314C6CFE19EC00111243E
:102BF00070E00E94B32F802FB11014C0860F209177
:102C00000D01622F6E0D7727771F9B01220F331F57
:102C1000260F371F205E3C4F4F2D6D2D0E94D6137F
:102C2000E394DCCF861BEBCFE8E1F3E09181282F22
:102C30004381628188E0890F0E949515089581E0A3
:102C40000E9414160895E8E1F3E09181282F438152
:102C5000628188EF890F0E949515089581E00E9496
:102C600023160895E8E1F3E0628128E0620F08F49A
:102C70006FEF282F438181810E949515089581E08F
:102C80000E9432160895E8E1F3E0628128E0621BB9
:102C900008F460E0282F438181810E9495150895F2
:102CA00081E00E9443160895E8E1F3E0438128E0C3
:102CB000420F08F44FEF282F628181810E94951501
:102CC000089581E00E9454160895E8E1F3E04381FD
:102CD00028E0421B08F440E0282F628181810E9495
:102CE0009515089581E00E946516089520E00E94E0
:102CF000951508959091180390FF0AC0211108C0FE
:102D00008093210360932003409322030E94E314E5
:102D10000895A3E0B0E0EFE8F6E10C944A30122FFA
:102D20009091180390FF0BC09E012F5F3F4F0E94B0
:102D3000D613212F4B8169818A810E947A162396AE
:102D4000E3E00C946630EF92FF921F93CF93DF93F2
:102D5000EC0110E0EE24EA94F12C60910F011617BB
:102D600070F00E94E3149A818C8190FF27C08F5FDE
:102D70008C83DF91CF911F91FF90EF900895209168
:102D80000D01422F410F5527551FCA019A01220FED
:102D9000331F280F391F205E3C4F70E0C7010E948F
:102DA000C72F962F8C8140911B0360911A03199FA6
:102DB000800D11240E94D6131F5FCFCF8150D8CF32
:102DC000B0E0A0E0E6EEF6E10C944430FC01828134
:102DD0000FEF80FF01E010E080910F01181798F0CD
:102DE0000E94E3148091CA02013009F04CC08111A5
:102DF00002C080910F0181508093CA02CDB7DEB727
:102E0000E9E00C946030C0910D01C12ED12CCC0DA5
:102E1000DD2DD11DCE01880F991FC80FD91FC05EAF
:102E2000DC4F198218821A8234E0E32EF12CB12C87
:102E30008091CA028B0D823024F587FF03C09091E8
:102E40000F01890F082E000C990BC816D90691F4B2
:102E500080911B038E9DA0018F9D500D11245595CF
:102E60004795559547959E0160911A0380911903E6
:102E70000E94D613B00EF1E0EF1AF108C9F61F5FF9
:102E8000ABCF80E0DFCF90E0019660910F0170E062
:102E90000E94C72FB1CF0F931F93CF93DF93E09181
:102EA0000D0180910E01E81760F48E2F90E0FC0177
:102EB000EE0FFF1FE80FF91FE05EFC4F118210823A
:102EC0001282C0E0D3E060910F01C61710F10E949A
:102ED000E314209109018091C902820F8093C902F5
:102EE00090910A01920F90930A01191654F4082E3A
:102EF000000C990B40910F014150550B8417950719
:102F00001CF0219520930901DF91CF911F910F9122
:102F100008950C2F10E070E0C8010E94C72F209187
:102F20000D01820F482F50E02091C902022E000CA3
:102F3000330B02171307BCF020910A01022E000C7C
:102F4000330B201731077CF08D9F90011124205EF8
:102F50003C4F40911B0360911A03809119030E941A
:102F6000D613CF5FB0CFFA01EE0FFF1FE40FF51FAE
:102F7000E05EFC4F118210821282F3CFB0E0A0E03D
:102F8000E4ECF7E10C944130EC014C81042F10E0AB
:102F90009801D8010E9412309B01AC010E94283098
:102FA0004B015C01E0E2F0E0E01BF10BA5E5B0E0D5
:102FB000AC019B010E9428306B017C019F01DF0165
:102FC0000E940A309B01AC010E9433309B01AC018E
:102FD000280D391D4A1D5B1DC701B6010E94DB2F5C
:102FE000F22E822F90E039E23F1520F143E0249F3A
:102FF0009001112435952795122F109500E085E555
:10300000E82EEF1880910F01081718F10E94E314C1
:103010009C8181E0992319F0903219F48FEF80930D
:10302000080180910801890F8C83CDB7DEB7ECE0F1
:103030000C945D3025E530E0B901681B790B9B01EC
:10304000220F331F260F371F37FFD4CF2F5F3F4F7D
:10305000D1CF8E2D01FD8F2D20910D01622F600F9C
:103060007727771F9B01220F331F260F371F205E04
:103070003C4F412F60911A030E94D6130F5FC2CFBD
:103080000F931F93CF93DF93EC0110E000E090913A
:103090000F019017110609F06CF40E94E3148C8163
:1030A00090E00196817099278C83DF91CF911F91D9
:1030B0000F91089520910D01A801420F511D9A0111
:1030C000220F331F240F351F205E3C4F4C8160912F
:1030D0001A038091190396959017110651F04CF040
:1030E000442349F040911B030E94D6130F5F1F4FEA
:1030F000CECF4423B9F340E0F7CFB0E0A0E0E3E85F
:10310000F8E10C943D30FC016280448081E08483CE
:10311000EDEEF1E07490ECE6F2E0E491C0911B0377
:10312000C695C158D0E0CC0FDD1FCD2FDD27812CF7
:1031300075E0972EAA24AA94B12C55245A94E71925
:10314000EE2EF12C80910F01881638F00E94E314C6
:10315000CDB7DEB7E0E10C945930C82CD12C82E019
:10316000861568F09C9CF0019D9CF00D1124E553A0
:10317000FD4F80911903808380911A038183411050
:1031800023C09C9CF0019D9CF00D1124E553FD4F44
:103190001382128220910D01C601820F911D9C01A4
:1031A000220F331F280F391F205E3C4F9C9CF001DB
:1031B0009D9CF00D1124E553FD4F4281618180817A
:1031C0000E94D6138394BECF9C9C80019D9C100DC1
:1031D000112405531D4FF80183818823F1F081509C
:1031E0008383859DC0011124648170E00E94B32F08
:1031F000FB01FF27E351FE4F8491E82FE719E59D7E
:10320000C0011124B7010E94B32F80911B03689F56
:10321000B0011124F8017283BDCF0E94F430B501D2
:103220000E94C72F8C179D070CF0B4CFF2E0F61563
:1032300098F40E94F430B5010E94C72FF8018083F2
:103240000E94F43020911A032695622F70E00E94AC
:10325000C72F280FF80121839C9CF0019D9CF00D45
:103260001124E553FD4F128280911B03893C58F0D5
:1032700088EC9C9CF0019D9CF00D1124E553FD4FC2
:103280008483838387CF8431A0F784E1F2CFE8E1A0
:10329000F3E020812E7F208331814281538164813C
:1032A0007581868197810E9425141092DA020E940E
:1032B000E3140895E8E1F3E080818E7F808310922B
:1032C000DA020E94E31408951092DA028091D70284
:1032D00081110AC081E08093D70280911803817028
:1032E0008093D6020E945A1908956091180366953A
:1032F000669570E04BE050E080E191E00E9404317F
:10330000892B19F481E08093DA020E9411289093AE
:10331000D1028093D00208959091180390FF34C099
:103320009370811132C0946090931803662391F0DA
:10333000209118033091190340911A0350911B03F7
:1033400060911C0370911D0380911E0390911F03D7
:103350000E942514609118036695669570E04BE015
:1033600050E080E191E00E940431892BB1F010928D
:10337000DA0281E08093D30240911B0360911A032B
:10338000809119030E94761608958B3210F0986A86
:10339000CBCF880F880F982BC7CF0E947519E9CF24
:1033A000682F909118039695969581E0890F8B323E
:1033B00008F081E00E948C19089581E00E94D019E4
:1033C0000895682F90911803969596958FEF890F21
:1033D00009F48AE20E948C19089581E00E94E119A3
:1033E000089561E00E948C190895E8E1F3E080817E
:1033F00081608083869586950E94F1190895809159
:10340000180380FF03C00E94471908950E94F51910
:10341000089560E00E948C1908958091D80281116E
:103420003FC00E94E80D811104C00E948B0E0E94D3
:1034300058140E94F31320931803309319034093F8
:103440001A0350931B0360931C0370931D03809316
:103450001E0390931F032C7FA1F40E9458140E9416
:10346000F313209318033093190340931A035093D6
:103470001B0360931C0370931D0380931E039093A2
:103480001F030E94E4131092DA028091180380FF58
:1034900004C0869586950E94091A81E08093D8021F
:1034A0000895E8E1F3E080818160808386958695C8
:1034B0000E94091A08958091180380FF03C00E949A
:1034C0005A1908950E94511A08951092D7028091B6
:1034D000D60281110E94511A0E94751908950F9306
:1034E0001F93CF93DF938091DA028823C1F18091FB
:1034F000D902E0911803E695E695E81BE093D20225
:10350000823091F5F0E0E751FE4FE491CE2FD0E00C
:1035100008E315E18091D302882361F01092D30271
:103520000E9411289093D1028093D0021092D5026C
:103530001092D4020E941128E091D002F091D102A1
:103540008E1B9F0B8F3F9F4750F4EC0FFD1FF09396
:10355000D102E093D00280ED92E0F8010995DF916D
:10356000CF911F910F910895863049F4F0E0EA5110
:10357000FE4FE491CE2FD0E00CE415E1CBCF8930A3
:1035800051F4E695F0E0ED51FE4FE491CE2FD0E0FE
:1035900003EA16E1BFCF8F3051F4E695F0E0E05238
:1035A000FE4FE491CE2FD0E000EE16E1B3CF85318F
:1035B00049F4F0E0E352FE4FE491CE2FD0E00BE46B
:1035C00017E1A8CFC8E2D0E00EEB17E1883109F48B
:1035D000A1CF833239F4EBEDF1E0C591D4910CE544
:1035E00015E198CFC4EFD1E000E418E1843209F48A
:1035F00091CFC0EDD7E002ED13E1853209F08ACF1B
:103600008E2F63E00E94A72FE92FF0E0E852FE4FD3
:10361000E491CE2FD0E00DE718E17CCF08950E9411
:103620006F1A0895FA01811101C0FB0109950895EF
:10363000CF93DF93C82FD62F0E946C148C1748F0BD
:103640000E946C148D1728F40E94DD19DF91CF9130
:1036500008958C2F0E94F119F9CF1F93CF93DF9318
:10366000EC01FB011581111110C00E94BF0C827288
:10367000FE01E052F847E531F10508F05EC0E4557F
:10368000FE4C0C94FD2F0E94FF19812FDF91CF91EA
:103690001F9108954DEE59E16DED79E10E94121BE5
:1036A000F4CF4DED59E16DEE79E1F8CF4EE256E100
:1036B0006FE176E1F3CF4FE156E16EE276E1EECFD6
:1036C00040E556E16FE376E1E9CF4FE356E160E58F
:1036D00076E1E4CF42E756E161E676E1DFCF41E60D
:1036E00056E162E776E1DACF45EB54E165E974E152
:1036F000D5CF45E954E165EB74E1D0CF81E00E947C
:10370000F119C3CF65E082E00E94181BBECF68E0CC
:1037100086E0FACF6EE089E0F7CF64E18FE0F4CF86
:1037200067E185E1F1CF88E1EACF62E289E1ECCFA0
:1037300083E2E5CF6AE285E2E7CF11E0A6CF3F9AC8
:1037400048B14F7758B15068EFB7F8949B01220FFA
:10375000331F260F371F280F391F2817390741F449
:10376000EFBF8FE594E00197F1F700C000000895E6
:10377000DC016D91CD0178E058B9000000C067FF11
:1037800048B9660F000000C000C000C048B900C0C2
:103790007A9591F7E2CFEBEFE80FEF3308F062C0D4
:1037A000F0E0EF53FE4C0C94FD2F0E948B0E81E055
:1037B00008958091C402807F8093C40281E0809349
:1037C000DE0208950E941C04F2CF9091C402892F5A
:1037D0008E7F90FF81608093C40280FDE8CF817F5F
:1037E0008093C402E4CF9091C402892F8D7F91FF12
:1037F00082608093C40281FFDACF8091C40281602D
:10380000EFCF9091C402892F8B7F92FF84608093C9
:10381000C40282FDF2CFCBCF9091C402892F877F63
:1038200093FF88608093C40283FDE7CFC0CF0E94DE
:10383000040890910203892F97FB87F980588093A1
:103840000203B5CF81E00E944F080E940408AFCF69
:10385000895391E001C0990F8A95EAF7892FF3CF38
:103860008D51F7CF80E0089580E008950E94341CC8
:103870000895CF93C82F8091DE028130B9F088235C
:1038800031F08230A1F11092DE0280E00DC00E9482
:10389000BF0C8232D1F78C2F0E94341C81111BC0C7
:1038A0008C2F0E94CB1B8170CF9108950E94BF0C7A
:1038B000823289F38C2F0E94361C81110AC0C431D8
:1038C00099F060F4CB3029F0C03169F782E0809341
:1038D000DE0281E0E8CF81E090E0E5CFC93221F05F
:1038E000C833B9F380E0DFCF1092DE02FBCFC932DC
:1038F00009F440C0F0F4C431E9F1A8F481E0C73024
:1039000099F68093220184E1809321018AE08093DB
:1039100020018EE180931F0188E080931C0188E2E2
:1039200080931B0104C082EE8C0F8A3070F181E01D
:10393000BBCFC03509F450C0B8F48AE0CF34B9F732
:10394000E091DB02F091DC02309789F32081082EB0
:10395000000C990B820F911D8F3F910509F00CF41B
:103960003FC08FEF8083E3CFC135C1F181E0C23525
:1039700039F39ACF8091DD028823C9F21092DD02DB
:103980001092DC021092DB02D2CFCD51C093DD0247
:10399000C330C9F048F4C13099F081E291E0C230FF
:1039A00051F01092DD02C3CFC53099F078F08BE171
:1039B00091E0C630B1F79093DC028093DB02B7CF81
:1039C00082E291E0F8CF80E291E0F5CF8FE191E0E3
:1039D000F2CF8CE191E0EFCF86EFB2CF8FEFB0CF97
:1039E00097FFC0CF1082A3CF84E0089550E0440F2A
:1039F000551F9EE1699F400D511D112496E9899F35
:103A0000400D511D1124CA01899608950F931F93EB
:103A1000CF93DF938430C8F46530B8F44F30A8F406
:103A20000E94F61C8C010E942731C82FD0E0DC2FA9
:103A3000CC27C80101960E9427319E01282BC9017D
:103A4000DF91CF911F910F91089590E080E0F8CF22
:103A50000F931F93CF93DF93122F032F843078F4AB
:103A6000653068F44F3058F40E94F61CEC01602F6A
:103A70000E944B31612FCE0101960E944B31DF91A4
:103A8000CF911F910F9108951F93CF93DF93D0E0B3
:103A9000C0E011C0412F6C2F8D2F0E9487039C0125
:103AA000412F6C2F8D2F0E94281D1F5F1F3091F713
:103AB000CF5FC53011F010E0EDCFDF5FD43041F7BC
:103AC000DF91CF911F910895EF92FF920F931F9373
:103AD000CF93DF93EC018A017C01E60EF71ECE0145
:103AE0008996CE15DF0529F4CDB7DEB7E6E00C9454
:103AF0006330C83522E0D20740F40E942731F80134
:103B000080830F5F1F4F2196EACFF8011082F9CF13
:103B1000B0E0A0E0EEE8FDE10C9445307C016A01E4
:103B20008C01060F171FEC01CE018996C017D10733
:103B300029F4CDB7DEB7E8E00C946130C83522E057
:103B4000D20740F4FE01EE19FF09EC0DFD1D608166
:103B50000E944B312196E8CF843038F4653028F448
:103B60004F3018F40E94061D089590E080E00895FB
:103B700080E108958FE791E00895EF92FF920F930F
:103B80001F93CF93DF93EC018A017C01E60EF71EB1
:103B9000CE018F579D4FCE15DF0529F4CDB7DEB787
:103BA000E6E00C946330CF3721E0D20740F40E9466
:103BB0002731F80180830F5F1F4F2196E9CFF8016D
:103BC0001082F9CFB0E0A0E0E8EEFDE10C944530C2
:103BD0007C016A018C01060F171FEC01CE018F5783
:103BE0009D4FC017D10729F4CDB7DEB7E8E00C949C
:103BF0006130CF3721E0D20740F4FE01EE19FF0912
:103C0000EC0DFD1D60810E944B312196E7CFCF93D3
:103C1000DF93C1E8D2E060E0CE010E944B312196F3
:103C2000C11584E0D807B9F7DF91CF910895A8E0D6
:103C3000B0E0EDE1FEE10C944330F82E8FE08F15FB
:103C400008F46EC08FEF93E00E942731811168C0A5
:103C500001E812E0F11035C0FE0131966F0188E0F5
:103C600011928A95E9F77801FFEFEF1AFF0AC80170
:103C70000E94273189831A82882309F451C0813038
:103C8000D1F4580182E0A80EB11CC7010E9427316F
:103C90008A83882309F444C09FEF980F9330F0F48F
:103CA000780193E0E90EF11CC5010E9427318B8356
:103CB0008823B1F11C8260E0C6010E948D22870139
:103CC000D2CF011594E0190759F1C8010E9427319C
:103CD000811101C0FA940F5F1F4FBCCF7501843072
:103CE00051F702E010E07501EFEFEE1AFE0AC50190
:103CF0000E942731F601E00FF11F8083882381F0B5
:103D00008C3741F4E2E0F0E0EC0FFD1FE00FF11F13
:103D10001082D1CF0F5F1F4F57010730110519F7E0
:103D20002896EAE00C945F30CF93DF93EB01863165
:103D30009C4711F50E94BF0C9D81992399F08A7AC6
:103D400091E009F490E09093DF02811109C089E2CB
:103D50000E94F6260E94730D80E0DF91CF910895B6
:103D600085E3F6CF8091DF02811104C089E20E94D1
:103D70000D27F0CF85E3FBCF81E0EFCFCF93DF932B
:103D8000EC01FB018581882309F4D2C09E013057E4
:103D90002332310508F0B2C00E94FE0D9093030358
:103DA00080930203FE01E150F047E232F10520F476
:103DB000E050FE4C0C94FD2F8091020381608093B3
:103DC000020393C0809103038860809303038DC036
:103DD000809102038260F3CF809102038460EFCF71
:103DE000809102038860EBCF809103038160EDCF67
:103DF000809103038260E9CF809102038061DFCF6D
:103E0000809102038062DBCF809102038064D7CF70
:103E10000E940408809102038068D1CF8091020340
:103E20008C60CDCF809103038360CFCF809102035C
:103E30008E7FC5CF80910303877FC7CF8091020318
:103E40008D7FBDCF809102038B7FB9CF809102031C
:103E5000877FB5CF809103038E7FB7CF8091030317
:103E60008D7FB3CF809102038F7EA9CF8091020313
:103E70008F7DA5CF809102038F7BA1CF0E94040884
:103E8000809102038F779BCF80910203837F97CF2E
:103E9000809103038C7F99CF8091020382FB992745
:103EA00090F921E0922790FB82F990FB83F987CF6C
:103EB00080910303982F909591708E7F892B90FBB2
:103EC00081F983CF90910203892F8F7B96FF8064C5
:103ED00076CF0E94040890910203892F97FB87F9FF
:103EE00080586DCF81E00E948E0E809102039091E8
:103EF00003030E94030E0E94040880E0DF91CF912B
:103F0000089580E0F0CF90910203892F8F7E94FF77
:103F1000806155CF90910203892F8E7F90FF816041
:103F20004ECF90910303892F877F93FF88604DCFF9
:103F300081E0E4CF282F35EB2303C001112497FF44
:103F400004C080589109892F089580589F4FFBCF56
:103F50008091E60280FF0DC06091200170E0660F45
:103F6000771F6038710570F56115710569F1862F4D
:103F7000089581FF07C06091200184E0689FB0012F
:103F80001124EFCF6091200182FD0AC08091E502EB
:103F90008823A9F020911F0160912001821710F061
:103FA00088E0ECCF869FC001112433E0880F991F71
:103FB0003A95E1F7622F70E00E94C72FD2CF68E0F8
:103FC00070E0D5CF8FE7089581E008958091E602F3
:103FD00080FF0CC060911C0170E075956795759528
:103FE00067956115710549F1862F089581FF06C017
:103FF00060911C0170E075956795F3CF60911C018D
:1040000082FD0BC09091E4029923A1F060911B0105
:1040100080911C01961738F0682F70E060387105A8
:1040200000F38FE70895899FC001112470E00E947A
:10403000C72FF4CF61E070E0D7CF81E00895909171
:10404000E9022091EA02922B2091EC02922B20911E
:10405000EB02922B31F098E09093E50291E090937F
:10406000E4028D3C31F40E94A81F81958093EA02FE
:1040700008958E3C19F40E94A81FF8CF8F3C31F4AC
:104080000E94A81F81958093E9020895803D19F44C
:104090000E94A81FF8CF893D29F40E94E61F809353
:1040A000EB0208958A3D21F40E94E61F8195F7CF27
:1040B0008B3D31F40E94E61F81958093EC020895B8
:1040C0008C3D19F40E94E61FF8CF9FE2980F9830BC
:1040D00070F4815D990B21E030E001C0220F8A95D8
:1040E000EAF78091E802822B8093E80208958D3DE3
:1040F00031F48091E60281608093E60208958E3D5E
:1041000021F48091E6028260F7CF8F3DB9F780916C
:10411000E6028460F1CF4091E9028D3C59F4809130
:10412000EA0287FF0DC01092EA0241110BC0109203
:10413000E50208C08E3C81F48091EA0218169CF3D7
:10414000442381F08091EB029091EC02892B09F0DD
:104150005AC01092E40208958F3C49F447FFF0CF13
:104160001092E9028091EA028111ECCFE0CF803D0C
:1041700019F41416ACF3E4CF9091EB02893D29F4C5
:104180001916F4F61092EB02DBCF8A3D19F497FF73
:10419000D7CFF8CF9091EC028B3D29F497FFD0CF89
:1041A0001092EC02CDCF8C3D19F41916CCF3C8CF88
:1041B0009FE2980F983090F4815D990B21E030E0F8
:1041C000B90102C0660F771F8A95E2F7CB0180958F
:1041D0009091E80289238093E802B2CF8D3D31F4BB
:1041E0008091E6028E7F8093E602AACF8E3D21F475
:1041F0008091E6028D7FF7CF8F3D09F0A1CF8091AE
:10420000E6028B7FF0CF08950E9411289C019091C7
:10421000E9028091EA02982B21F03093E302209387
:10422000E2029091EB028091EC02982B21F0309306
:10423000E1022093E00287EE92E00E94F3250895C8
:1042400086E0E7EEF2E0DF011D928A95E9F7109231
:10425000E5021092E4021092E6020895FC018281C8
:1042600081110EC0838181110BC08481811108C02E
:1042700091E08581811101C090E0892F81700895BE
:1042800081E0FCCFA6E0B0E0E8E4F1E20C944A3033
:1042900086E0E7EEF2E0DE01119601900D928A953C
:1042A000E1F71092E9021092EA021092EB021092EA
:1042B000EC028B819C81892B89F08091E2029091A4
:1042C000E3020E942928AC019091E5029923C9F1EB
:1042D000809121018417150608F440C08D819E81CC
:1042E000892B91F08091E0029091E1020E942928AF
:1042F000AC019091E402992309F46AC080911D01F8
:104300008417150608F472C0BE016F5F7F4F87EEF9
:1043100092E00E943E27811105C087EE92E00E9444
:104320002E2181110E94042186E0FE013196A7EE24
:10433000B2E001900D928A95E1F72696E3E00C94A5
:104340006630209122018AE0289F900111242417D1
:10435000350720F69F5F9093E50202C09F3FD1F79B
:104360001B81112359F00E94A81F9FEF11160CF416
:1043700091E0899F802D11248093E9021C811123F3
:1043800059F00E94A81F9FEF11160CF491E0899F2D
:10439000802D11248093EA028091E902882309F498
:1043A0009DCF1091EA02112309F498CF0E949A1F21
:1043B000882351F08093E902812F0E949A1F88235D
:1043C00029F08093EA028ACF81E0F4CF81E0F9CF2F
:1043D00020911E018AE0289F90011124241735079F
:1043E00008F092CF9F5F9093E40202C09F3FD1F705
:1043F0001D81112359F00E94E61F9FEF11160CF446
:1044000091E0899F802D11248093EB021E8111235E
:1044100059F00E94E61F9FEF11160CF491E0899F5E
:10442000802D11248093EC028091EB02882309F403
:104430006BCF1091EC02112309F466CF0E949A1FF2
:10444000882351F08093EB02812F0E949A1F8823CA
:1044500029F08093EC0258CF81E0F4CF81E0F9CFCE
:10446000B0E0A0E0E6E3F2E20C944630E82FF0E0A2
:10447000EE50FC4FD490282F26952695269530E0B7
:10448000F901EE56FB4F0491877010E0082E02C030
:10449000159507950A94E2F701701127F901EE5777
:1044A000FB4FE490F12C082E02C0F594E7940A9497
:1044B000E2F791E0E922FF24F901EE58FB4FC491A5
:1044C000D0E002C0D595C7958A95E2F7C170DD2787
:1044D0000115110519F081EE0E941605E114F10491
:1044E00019F086EE0E9416058D2D0E94AF05E1148D
:1044F000F10419F086EE0E9464050115110519F00A
:1045000081EE0E946405CD2B19F08CE20E94AF056C
:10451000CDB7DEB7E7E00C946230EF92FF920F93D5
:104520001F93CF93DF93EC01162F0AE08881882335
:1045300009F454C0813009F04EC08981813099F46A
:104540007E0122E0E20EF11C8A810E94AF05E701A4
:104550002196812F815050F3EFE9FFE03197F1F779
:1045600000C00000F7CF823041F47E0182E0E80E07
:10457000F11C8A810E941605EACF833041F47E0146
:10458000E2E0EE0EF11C8A810E946405E0CF8430E7
:1045900011F02196DDCF2A81229690E080E0AE01D5
:1045A0004F5F5F4F2053330B2A30310548F001979E
:1045B00078F2EFE9FFE03197F1F700C00000F7CFA4
:1045C000089FB001099F700D1124C901860F971F24
:1045D0002981EA01E4CF0E943022BACFCDB7DEB7FD
:1045E000E6E00C946330B0E0A0E0E9EFF2E20C9476
:1045F00043307C015B01C42FD22FFC0185818823CD
:10460000C9F04093EF020E9411289093EE0280932C
:10461000ED0280E28C0F883040F4C77081E001C069
:10462000880FCA95EAF70E94B805CDB7DEB7EAE071
:104630000C945F301091EF02141338C08091ED029A
:104640009091EE020E9429286C01B701C5010E94D9
:104650007E03C816D90650F5C0E2CD0F1D17C1F074
:1046600080E2810F883048F4177081E0012E01C08C
:10467000880F0A94EAF70E94BF05C83048F481E029
:104680009D2F977001C0880F9A95EAF70E94B80590
:10469000802F0E94AF05C83040F6D77081E001C07E
:1046A000880FDA95EAF70E94BF05BFCF80E28C0F32
:1046B000883008F0BACFC77081E001C0880FCA9572
:1046C000EAF7F1CF0F93DB0188519C4787309105C2
:1046D000A0F5FC01EE5DFD4C0C94FD2F06E221EEF1
:1046E00041EE6AE17CE7CD010E94F32280E00F9168
:1046F000089507E225EE45EE6BE17CE7F4CF06E294
:1047000021EE40EE68E17CE7EECF07E225EE44EED5
:1047100069E17CE7E8CF06E221EE42EE6CE17CE75E
:10472000E2CF07E225EE46EE6DE17CE7DCCF08E262
:1047300021E045EE6EE17CE7D6CF15968C9188237B
:1047400019F01092EF02D3CF81E0D1CF1F93CF9316
:10475000DF9387372CE7920759F0C1E088379C47F1
:10476000E1F4FB01C581CC2371F10E94E92306C06D
:10477000FB01C581CC23B1F00E94E6230E947C0896
:104780000E94EC23D82F0E94E923C82F0E94E62321
:104790004D2F6C2F0E94A409C0E08C2FDF91CF9188
:1047A0001F9108950E94E6230E9488080E94EC232E
:1047B000182F0E94E923D82F0E94E623412F6D2F46
:1047C0000E94A409EACF0E94E923EECF809125013F
:1047D000089580912401089580912301089585E230
:1047E00090E00E942731833289F486E290E00E94B3
:1047F0002731823159F487E290E00E94273191E01D
:10480000803109F090E0892F8170089580E0FCCF1D
:10481000CF93C82F6FEF811163E285E290E00E9491
:104820004B316FEFC11162E186E290E00E944B31A3
:104830006FEFC11160E187E290E00E944B31CF91B0
:104840000895089588E290E00E942731682F70E073
:1048500090E080E008950895CF93C62F0E942B2406
:104860006C2F88E290E00E944B31CF91089580E058
:104870000E94082460E070E0CB010E942C240E947A
:10488000441D0E94071E81E00E94082408950E9492
:1048900021240E9422240E942B240E94EF238111B4
:1048A00002C00E94372408950E945B1A08959C015B
:1048B000FB018581882351F0A901575740385105E4
:1048C00030F4822F0E94171E80E0089581E0089541
:1048D0002FEFFC012083089580E00895CF93DF93AC
:1048E000EC0188818230E9F028F4813071F0DF91A9
:1048F000CF9108958330F9F08430C9F70E94D6141F
:1049000089830E94D9148A83F2CF0E94DC142FEF8E
:10491000829FC00111246FEF70E00E94B32F698362
:10492000E6CF0E947514882321F00E946C148983BD
:10493000DECF80E0FCCF0E94B914F9CFCF93DF9394
:10494000EC018881823021F128F4813069F0DF9117
:10495000CF910895833041F18430C9F70E94DC146F
:10496000482F6A81898111C089812FEF829FC00100
:1049700011246FEF70E00E94B32FD62F0E94D9143C
:10498000C82F0E94D6144D2F6C2F0E947616DFCFB1
:104990008981811103C00E945A19D9CF0E94511AEE
:1049A00089810E94091AD3CF89810E94D214CFCF66
:1049B000FC019C012E5F3F4F9081983041F099306F
:1049C00051F0973059F4C9010E949E240895C901FD
:1049D0000E946E2408950E944B1408958FEF8083E7
:1049E0000895FC012181223019F40E94D8240895F1
:1049F0000E9468240895B0E0A0E0E1E0F5E20C94A4
:104A00004530EC01C62E0E946C24811110C0E88153
:104A1000E150E331B8F4F0E0E75DFD4C0C94FD2F7C
:104A200019828CE08A836C2DCE010E94DB28CDB7E1
:104A3000DEB7E8E00C94613089818230C1F028F45F
:104A4000813061F08FEF8883EECF833099F084302E
:104A5000C9F71A821B821C821D82E5CF0E941D2885
:104A60000E9403306A837B838C839D83DCCF0E940A
:104A70002224F6CF8A81082F10E07E019EE0D92EF5
:104A8000D80E0530110578F6802F0E94D911F70154
:104A9000938384830F5F1F4FF2E0EF0EF11CD0125F
:104AA000F0CFC1CF8981823031F0853059F68A81CB
:104AB0000E945424B8CF6A817B818C819D810E94A1
:104AC00003300E942C24AFCF4B816A8189810E94E0
:104AD000061D9827892798279D838C83A4CF2C8136
:104AE0003D813227232732274B816A8189810E94A9
:104AF000281D99CF0E94441D96CF6C2DCE010E9497
:104B0000F12491CF0E94B81D89838DCF0E94BA1DD8
:104B10009827892798279A83898385CF6B8170E0AE
:104B200089819A81AE014C5F5F4F9827892798272A
:104B30000E94BD1D78CF6B8170E089819A81AE01A2
:104B40004C5F5F4F9827892798270E94E21D6BCF03
:104B50000E94071E68CF0E94F41CD6CF6B8170E0C4
:104B600089819A81AE014C5F5F4F982789279827EA
:104B70000E94641D58CF6B8170E089819A81AE01DB
:104B80004C5F5F4F9827892798270E94881D4BCF3D
:104B90009093F5028093F4020895E091F402F0916D
:104BA000F502309729F00190F081E02D09950895E4
:104BB00080E00895E091F402F091F502309721F041
:104BC0000280F381E02D09950895E091F402F091BF
:104BD000F502309739F026E0DC012C930480F58152
:104BE000E02D09950895E091F402F091F5023097D7
:104BF00039F022E0DC012C930680F781E02D099545
:104C00000895A3E0B0E0E7E0F6E20C944B30209189
:104C1000F2023091F30228173907A1F09093F302C2
:104C20008093F202E091F402F091F502309751F096
:104C300023E029839B838A830084F185E02DCE01C4
:104C4000019609952396E2E00C946730A3E0B0E06A
:104C5000ECE2F6E20C944B302091F0023091F1023C
:104C600028173907A1F09093F1028093F002E091A8
:104C7000F402F091F502309751F024E029839B83F0
:104C80008A830084F185E02DCE0101960995239653
:104C9000E2E00C94673020910601309107012E5F0D
:104CA0003F4F80913001882379F08091020387FF84
:104CB0000BC020910401309105012E5F3F4F9EE112
:104CC00080E0915018F4089596E0FACFF9014191EF
:104CD0009F014423B1F38F5FF4CF882321F190919A
:104CE0003001992311F19091020397FF1EC0E82F24
:104CF000E695E695E695EE31B0F420910401309109
:104D00000501E20FF32FF11D228130E0877041E0B1
:104D100050E002C0440F551F8A95E2F72423352343
:104D200081E0232B91F480E00895209106013091D9
:104D30000701F9013296285F3F4F9191981721F0B2
:104D4000E217F307D1F7EFCF81E008959C01FC0152
:104D500032969FEF80E04191461751F09F3F19F442
:104D6000411101C0982F8F5F8630A9F79F3F09F44A
:104D70000895290F311D97FD3A95F9016283089531
:104D8000FC01329608962191261303C0DF0111978A
:104D90001C92E817F907B9F70895E62FE695E6950E
:104DA000E695EE3168F4E80FF92FF11D677021E008
:104DB00030E001C0220F6A95EAF78281822B82835C
:104DC0000895E62FE695E695E695EE3170F4E80F46
:104DD000F92FF11D677021E030E001C0220F6A95C4
:104DE000EAF720958281282322830895682F8091F5
:104DF0003001882359F08091020387FF07C080911A
:104E00000401909105010E94CD260895809106012C
:104E1000909107010E94A6260895682F8091300185
:104E2000882359F08091020387FF07C08091040115
:104E3000909105010E94E1260895809106019091CC
:104E400007010E94C026089580913001882379F0DF
:104E50008091020387FF0BC0E0910401F0910501EE
:104E600032968EE1DF011D928A95E9F70895E0916F
:104E70000601F0910701329686E0F4CFDC01FB01D8
:104E800011969C9111978181981322C012968C9152
:104E90001297882319F0928189131AC013968C9166
:104EA0001397882319F09381891312C015968C915A
:104EB0001597882319F0958189130AC014969C913F
:104EC000992321F081E02481291303C080E001C0EF
:104ED00081E08170089508950E946B2708958111E3
:104EE00006C081E08093F6020E946C27089582E05C
:104EF000F9CF83E08093F6020E946C2708950E9408
:104F00006F27089581E08093F6020E946C27089530
:104F10000E9482270895089508950E948C2708957D
:104F2000089508950E948B270895CF930E9490279B
:104F30000E94A4120E949127C0E08C2F0E94D911D8
:104F4000892B31F4CF5FC530C1F780E0CF91089550
:104F500081E0FCCF85B7806885BF85B7806885BF55
:104F600008951F921FB61F9211248F939F93AF93A2
:104F7000BF938091F702811113C080912303909118
:104F80002403A0912503B09126034196A11DB11DD4
:104F90008093230390932403A0932503B0932603C7
:104FA000BF91AF919F918F911F901FBE1F90189539
:104FB00080912B03843031F10E9496041092F70205
:104FC00088E190E020E40FB6F894A8958093600003
:104FD0000FBE2093600083B7817F846083BF83B757
:104FE000816083BF7894889583B78E7F83BF0FB627
:104FF000F894A89580916000886180936000109279
:1050000060000FBE08950E9404080E949D04089548
:1050100082E084BD93E095BD9AEF97BD80936E00CA
:1050200008952FB7F8948091230390912403A091C1
:105030002503B09126032FBF08952FB7F8946091F0
:1050400023037091240380912503909126032FBFA1
:1050500008959C014FB7F894809123039091240305
:10506000A0912503B09126034FBF821B930B089597
:1050700078941F921FB61F9211248F939F93AF9322
:10508000BF938091230390912403A0912503B091B5
:1050900026030196A11DB11D809323039093240341
:1050A000A0932503B0932603BF91AF919F918F9159
:1050B0001F901FBE1F90189581E08093E00080E252
:1050C0008093D8001092C9008FE19EE40197F1F718
:1050D00000C0000087E090EBDC01809334039093E4
:1050E0003503A0933603B093370388E19CE00FB6F5
:1050F000F894A895809360000FBE90936000FFCF56
:1051000088E19CE00FB6F894A895809360000FBEEC
:1051100090936000FFCF8091000308959B01BA0136
:1051200090912B039430E9F48F708093E9009FEF06
:105130008091E800915085FD06C085ED8A95F1F7D4
:1051400000009111F5CF8091E80085FF0AC050E082
:1051500040E0C9010E94D12A8091E8008E778093B7
:10516000E800089543E050E0BC0184E00E948E28EE
:10517000089546E050E0BC0184E00E948E28089526
:1051800040E250E0BC0184E00E948E280895CF9355
:10519000DF93EC0148E050E0BC0181E00E948E28E2
:1051A00088E0FE01A8EFB2E001900D928A95E1F748
:1051B000DF91CF910895603231F440E250E0BC01BC
:1051C00082E00E948E28089580912A03811109C0EF
:1051D0000E94B02C0E940D2D8091E200846080938B
:1051E000E200089510922A0308950E9482270895EC
:1051F0006091270381E0611101C080E00E9479275E
:10520000089590912B0381E0943009F080E0609143
:1052100027030E947F27089542E061EC81E00E940D
:105220002C2C42E261EC84E00E942C2C42E261ECE6
:1052300082E00E942C2C42E260EC83E00E942C2C45
:1052400090912B0381E0943009F080E06091270376
:105250000E946F27089580912D03833009F463C065
:1052600030F48130E1F1823009F4A0C008958A3031
:1052700009F48CC08B3009F471C0893009F052C038
:1052800080912C03813209F04DC0809130039091C0
:105290003103009719F0029709F044C08091E800AB
:1052A000877F8093E8008091E80082FF37C090916B
:1052B000F3008091F200029731F48091F100813087
:1052C00011F0863021F48091F100809300038091E9
:1052D000E8008B778093E8000E94602C23C08091C7
:1052E0002C03813AF9F48091E800877F8093E800ED
:1052F0008091300390913103892B61F468E088EF4D
:1053000092E070E00E946F2B8091E8008B77809391
:10531000E800089560E090E080E0F3CF80912B03F7
:105320008111C1CF089580912C03813AD9F78091E2
:10533000300390913103892BA9F78091E800877F92
:105340008093E8008091E80080FFFCCF80913001DD
:105350008093F1008091E8008E77BCCF80912C0380
:10536000813201F78091300390913103892BD1F67E
:105370008091E800877F8093E8000E94602C8091F4
:105380002E03809330010E940408089580912C031D
:10539000813241F68091E800877F8093E8000E9487
:1053A000602C80912F0380930103089580912C033A
:1053B000813A09F0B7CF8091E800877F8093E800B9
:1053C0008091E80080FFFCCF80910103C1CF84B7BA
:1053D000877F84BF0FB6F894A8958091600088619C
:1053E00080936000109260000FBE80E890E00FB6DE
:1053F000F89480936100909361000FBE0E9488270B
:1054000008950E94B02C0E940D2DE2EEF0E0808104
:105410008460808378940E948C2F089586E291E0C6
:105420000E94C825089580912B03853031F4809126
:105430002B03853019F00E94032808950E94D82775
:1054400080912903882399F30E949527882379F373
:105450000E94BB2A0E940408EACFA0E2B0E0E3E386
:10546000FAE20C944B3080912B03843009F583E0F1
:105470008093E9008091E80082FF1AC08091E800E3
:1054800090E085FF09C050E040E060E270E0CE01AE
:1054900001960E94202B91E08091E8008B77809309
:1054A000E800992329F060E2CE0101960E94FB24D6
:1054B000A096E2E00C9467309A014091320350913B
:1054C00033030E94642A0895492F5527433051051C
:1054D00021F168F44130510509F443C042305105CF
:1054E00009F444C090E080E050E040E026C0413242
:1054F000510551F142325105A9F76330710590F71A
:10550000FB01EE0FFF1FEB51FE4F408151816E51A9
:105510007E4FFB01808190E010C09927813091057A
:1055200081F0009729F00297E9F6E2EAF4E002C080
:10553000E2EDF4E0849190E0AF01F9015183408302
:105540000895E4EBF4E0F6CF6330710558F6660F8A
:10555000771FFB01E551FE4F4081518189E090E0CA
:10556000ECCF82E190E041E355E0E7CF8BE590E0BE
:1055700046ED54E0E2CF80E189BD82E189BD09B406
:1055800000FEFDCF8091D8008F7D8093D800809160
:10559000E00082608093E0008091E00081FDFCCF1C
:1055A0000895AF92BF92CF92DF92FF920F931F9315
:1055B000CF93DF936C01EB018A010E947F2CF82EC0
:1055C000811123C00115110539F0F8018081918105
:1055D000C81BD90BC80ED91EB12CA12C2097A9F03D
:1055E0008091E80085FD22C08091E8008E7780934D
:1055F000E80001151105A1F0F80180819181A80E44
:10560000B91EB182A08285E0F82E8F2DDF91CF9157
:105610001F910F91FF90DF90CF90BF90AF900895B2
:105620000E947F2C8823D1F2F82EEFCFF6018191D2
:105630006F018093F1002197FFEFAF1ABF0ACECF21
:10564000AF92BF92CF92DF92FF920F931F93CF93AF
:10565000DF936C01EB018A010E947F2CF82E8111EF
:1056600023C00115110539F0F80180819181C81B13
:10567000D90BC80ED91EB12CA12C2097A9F080916E
:10568000E80085FD22C08091E8008B778093E800D8
:1056900001151105A1F0F80180819181A80EB91EB4
:1056A000B182A08285E0F82E8F2DDF91CF911F91DE
:1056B0000F91FF90DF90CF90BF90AF9008950E9420
:1056C0007F2C8823D1F2F82EEFCF8091F100F601E4
:1056D00081936F012197FFEFAF1ABF0ACECFFC0174
:1056E000809132039091330386179707A0F06115DC
:1056F000710529F49091E8009E779093E80090E07E
:105700006115710551F4911108C08091E80082FF84
:1057100034C080E00895BC01F2CF80912B03882330
:10572000C1F18530C1F18091E80083FD30C08091E6
:10573000E80082FDEACF8091E80080FFE1CF809110
:10574000F3002091F200382F6115710519F028300F
:10575000310558F091E02830310509F090E02091B2
:10576000E8002E772093E800CBCF81918093F10061
:10577000615071092F5F3F4FE7CF80912B03882342
:1057800041F0853041F08091E80083FFBECF81E099
:10579000089582E0089583E00895FC01809132032A
:1057A0009091330386179707A0F06115710529F4CE
:1057B0008091E8008E778093E80090E06115710594
:1057C00051F4911108C08091E80082FF35C080E05B
:1057D0000895BC01F2CF80912B038823C9F1853055
:1057E000C9F18091E80083FD31C08091E80082FD1D
:1057F000EACF8091E80080FFE1CF8091F300209113
:10580000F200382F6115710519F02830310558F074
:1058100091E02830310509F090E08091E8008E7722
:105820008093E800CBCF84918093F1003196615052
:1058300071092F5F3F4FE6CF80912B03882341F002
:10584000853041F08091E80083FFBDCF81E008956D
:1058500082E0089583E00895982F973028F08F70A4
:105860008093E90081E008959093E900242F762F3A
:1058700050E0981731F07091EC002091ED005091BC
:10588000F00021FD02C09F5FE8CF3091EB003E7F2A
:105890003093EB003091ED003D7F3093ED0030917F
:1058A000EB0031603093EB007093EC002093ED003F
:1058B0005093F0002091EE0027FDE5CF80E00895A1
:1058C00080912C0387FF13C08091E80082FF06C0FF
:1058D0008091E8008B778093E80004C080912B03CF
:1058E0008111F2CF089580912B038823D9F3809101
:1058F000E80080FFF8CF8091E8008E77ECCF209110
:10590000E4003091E50095E6A9012091EC00822F9A
:10591000817020FF06C08091E80080FF06C080E013
:1059200008952091E80022FD1AC080912B0388235E
:1059300089F0853089F08091EB0085FD0FC02091C2
:10594000E4003091E50042175307F9F29150E1F677
:1059500084E0089582E0089583E0089581E0089549
:105960000E941F2D0E94272DE0EEF0E080818160D3
:105970008083E8EDF0E080818F77808319BCA7ED0C
:10598000B0E08C918E7F8C9380818F7E808310928B
:105990002A0308950F931F93CF93DF930E941F2D27
:1059A0000E94272DC8EDD0E088818F778883888179
:1059B0008068888388818F7D888319BC10922B032F
:1059C00010922703109229031092280300EE10E092
:1059D000F80180818B7F808388818160888342E0A9
:1059E00060E080E00E942C2CE1EEF0E080818E7F70
:1059F0008083E2EEF0E08081816080838081886036
:105A00008083F80180818E7F808388818061888394
:105A1000DF91CF911F910F910895E8EDF0E0808123
:105A20008F7E8083E7EDF0E080818160808384E079
:105A300082BF81E080932A030E94CA2C0895E8ED7A
:105A4000F0E080818E7F80831092E20008951092B2
:105A5000DA001092E10008951F920F920FB60F9294
:105A600011242F933F934F935F936F937F938F9363
:105A70009F93AF93BF93EF93FF938091E10082FFD9
:105A80000BC08091E20082FF07C08091E1008B7F14
:105A90008093E1000E948B2F8091DA0080FF19C073
:105AA0008091D80080FF15C08091DA008E7F8093AE
:105AB000DA008091D90080FF96C080E189BD82E143
:105AC00089BD09B400FEFDCF81E080932B030E94C5
:105AD000E4288091E10080FF19C08091E20080FFFE
